S01100006173705F6576616C312E7372656397
S113000000800020D1000000C9000000C9000000E9
S113001080B51448144B21E05C689968DD688C4213
S11300200CD0002205E0A6180832D6E9008941E97F
S113003002898C460831AA42F5D101E004EB050C93
S11300401C696146002204E008320026002741E9C9
S113005002670831A242F7D1143301380028DBD1FA
S11300600BF0EEF80100000000C7000001498D46C6
S113007001490847008000201100000048F218637D
S1130080C1F6FF731A780AB901201870704700BFCF
S113009048F20810C1F6FF7008B503682BB140F2AE
S11300A00003C0F2000303B1984708BD80B400AF59
S11300B071B6BD4680BC704780B500AFFFF7F6FF50
S11300C062B605F0F3FD80BD80B400AFFEE700BF6B
S11300D0054B1C7844F001041C70044B1A78D2B20E
S11300E0034B1A70FFF794FFE8460040FA460040BD
S11300F0BC76004080B582B000AF4EF60C53CEF211
S1130100000340F20042C0F2FA521A604EF6145351
S1130110CEF200034EF61452CEF20002126842F4FC
S113012000721A604FF000037B6019E079687B6805
S1130130032B07D87A6840F20003C0F2000353F897
S1130140223003E040F2C903C0F2000348F2000287
S1130150C1F6FF7242F821307B6803F101037B6032
S11301607B682F2BE2D947F2BC63C4F200031B78EF
S1130170DAB24EF29C23C1F6FF731A704EF608539E
S1130180CEF2000348F20002C1F6FF721A6007F0D3
S11301908DFD48F20013C1F6FF734FF000021A60A0
S11301A007F10807BD4680BD80B483B000AF786016
S11301B007F10C07BD4680BC704700BF80B483B014
S11301C000AF786007F10C07BD4680BC704700BFE4
S11301D080B500AF4FF01000FFF7E6FF4FF00100CD
S11301E007F0A8FA4FF01000FFF7E8FF80BD00BF4A
S11301F080B500AF03F052F902F038FC01F0F6FFCD
S113020001F0DAFD02F0ACFA02F054F980BD00BF4F
S113021080B500AF4FF0000001F034FC4FF0000057
S113022006F032FF4FF0000006F0BEF84FF0000079
S113023007F010FA4FF0000006F0ECF980BD00BFA3
S113024080B500AF4FF0000006F060F94FF00000F9
S113025001F058FC80BD00BF80B400AFBD4680BC37
S1130260704700BF80B58CB000AFF860B9607A60A9
S11302703B60BB683B617B68BB613B68FB61BB6BFC
S11302803B6207F11003F868194606F033FF07F1E3
S11302903007BD4680BD00BF80B586B002AFF860B0
S11302A0B9607A603B603B68002B08DA3B680093D6
S11302B04FF00300F968BA687B6806F035F807F177
S11302C01007BD4680BD00BF80B58CB002AF78601A
S11302D04FF00003FB617B683B624BF6C463C0F2E2
S11302E0000307F10C0C93E807008CE8070003F007
S11302F0FDFD03464BF27C60C0F200004FF0930119
S11303004BF29462C0F20002FFF7C6FF00E000BFA8
S1130310FB6903F10103FB613B6A03F1FF334FEA1D
S1130320830307F12802134453F81C3C00934FF055
S113033005004BF2A061C0F200013A6AFB6906F0C5
S1130340F9FF4FF00003BB6103E0BB6903F1010354
S1130350BB61BA694EF2D813C1F6FF731B689A42A7
S1130360F3D33B6A03F1FF324EF2D413C1F6FF73A9
S11303709B5C87F827303B6A03F1FF324EF2D413BB
S1130380C1F6FF734FF00001995497F82730A3F199
S11303905303272BBBD801A252F823F0C704000053
S11303A00F0300000F0300000F0300000F03000001
S11303B00F03000065050000AF0500000F030000F7
S11303C00F0300000F0300000F0300000F030000E1
S11303D00F0300000F0300000F0300000F030000D1
S11303E0FD0400003D0400000F0300000F030000A3
S11303F00F0300000F0300000F0300000F030000B1
S11304000F0300000F0300000F0300000F030000A0
S11304100F0300000F0300000F0300009504000009
S11304200F0300000F0300000F0300000F03000080
S11304300F03000033050000970500004FF006008D
S11304404BF2C061C0F200013A6A06F073FF03F098
S113045063FF03464BF27C60C0F200004FF09D0145
S11304604BF2D062C0F20002FFF716FF4BF27C633E
S1130470C0F200034BF2DC62C0F2000200924FF0C3
S113048000004FF002011A464FF09E03FFF7EAFE08
S1130490FFF7E2FE4FF006004BF2E061C0F200010C
S11304A03A6A06F047FF04F0CDF903464BF27C604C
S11304B0C0F200004FF0A1014BF2F062C0F2000262
S11304C0FFF7EAFE9DE04FF006004BF2FC61C0F23C
S11304D000013A6A06F02EFF42F2107004F0FCF9B3
S11304E003464BF27C60C0F200004FF0A5014BF2D2
S11304F01072C0F20002FFF7CFFE82E04FF0060058
S11305004BF22071C0F200013A6A06F013FF42F286
S1130510107004F03FFC03464BF27C60C0F2000014
S11305204FF0A9014BF23472C0F20002FFF7B4FE9F
S113053067E04FF006004BF24471C0F200013A6AE2
S113054006F0F8FE03F09EFC03464BF27C60C0F21A
S113055000004FF0AD014BF25472C0F20002FFF7FD
S11305609BFE4EE04FF006004BF26071C0F20001BA
S11305703A6A06F0DFFE03F0B9FC03464BF27C60F6
S1130580C0F200004FF0B1014BF29462C0F20002DD
S1130590FFF782FE35E04FF005004BF27071C0F2B8
S11305A000013A6A06F0C6FE02EE101F29E002F0CE
S11305B0F5FC03464BF27C60C0F200004FF0B90139
S11305C04BF28872C0F20002FFF766FE4FF005009E
S11305D04BF27071C0F200013A6A06F0ABFE02EE13
S11305E0101F02F0F7FC03464BF27C60C0F20000DF
S11305F04FF0BC014BF29472C0F20002FFF74CFEC4
S113060086E685E680B586B002AF786039603B68DF
S1130610FB604FF005004BF2A071C0F20001FA68D4
S11306207B6806F087FE4FF00003BB6003E0BB6805
S113063003F10103BB60BA684EF2D013C1F6FF7335
S11306401B689A42F3D37B6803F40043002B2BD03E
S11306504FF006004BF2C061C0F20001FA6806F0E8
S113066069FE03F059FE03464BF27C60C0F20000C1
S11306704FF0D2014BF2D062C0F20002FFF70CFE41
S11306804BF27C63C0F200034BF2DC62C0F2000266
S113069000924FF000004FF002011A464FF0D303CE
S11306A0FFF7E0FDFFF7D8FD07F11007BD4680BD59
S11306B0B0B586B002AF78604FF005004BF2C4715C
S11306C0C0F200017A6806F035FE02F00DFD034623
S11306D0012B07D04FF004004BF2F071C0F200017F
S11306E006F028FE02F034FD0346012B07D04FF03C
S11306F004004BF62001C0F2000106F01BFE02F0DC
S113070005FD054602F014FD044603F035FC0346DE
S113071000934FF006004BF65001C0F200012A4648
S1130720234606F007FE786801F0ECFE044678687C
S113073001F006FF03464FF006004BF67801C0F2C5
S11307400001224606F0F6FD786801F0F9FE034642
S1130750002B2AD04FF005004BF69401C0F20001A3
S113076006F0E8FD05F0B6FA03464BF27C60C0F2F1
S113077000004FF0F1014BF6B802C0F20002FFF79F
S11307808BFD4BF27C63C0F200034BF2DC62C0F2DF
S1130790000200924FF000004FF002011A464FF0A1
S11307A0F203FFF75FFDFFF757FD07F10C0318464F
S11307B002F0B8FB03464BF27C60C0F200004FF03D
S11307C0F5014BF6C402C0F20002FFF765FDFB68B9
S11307D018464FF4004103F0DFFA03464BF27C6005
S11307E0C0F200004FF0F6014BF6D802C0F200024E
S11307F0FFF752FD07F11007BD46B0BD80B582B0CA
S113080000AF78604FF0090002F052FB03464BF250
S11308107C60C0F2000040F203114BF6F402C0F217
S11308200002FFF739FD4FF00A0002F041FB0346D6
S11308304BF27C60C0F200004FF482714BF60C1254
S1130840C0F20002FFF728FD4FF00B0002F030FB6E
S113085003464BF27C60C0F2000040F205114BF6F7
S11308602412C0F20002FFF717FD07F10807BD4686
S113087080BD00BF80B582B000AF78604FF0090042
S113088002F016FB03464BF27C60C0F200004FF40A
S113089088714BF6F402C0F20002FFF7FDFC4FF042
S11308A00A0002F005FB03464BF27C60C0F2000034
S11308B040F211114BF60C12C0F20002FFF7ECFCEF
S11308C04FF00B0002F0F4FA03464BF27C60C0F2E6
S11308D000004FF489714BF62412C0F20002FFF7B6
S11308E0DBFC07F10807BD4680BD00BF80B58EB0B4
S11308F002AF78604FF002037B624FF00103BB62EA
S11309004FF07F004FF0010106F0F8FC03464BF274
S11309107C60C0F2000040F227114BF63C12C0F29A
S11309200002FFF7B9FC4FF005004BF67411C0F25A
S113093000017A6806F0FEFC4FF0010005F09AFE13
S11309400346FB62FB6A002B14DAFB6ADBB25BB280
S113095013F1290F0ED0F86A05F0C2FB0246FB6AB8
S11309604FEA23234FF003004BF69811C0F2000125
S113097006F0E0FC4FF001004FF4A26106F08CF9A0
S113098003464BF27C60C0F2000040F237114BF694
S1130990C012C0F20002FFF77FFC4EF2D813C1F67A
S11309A0FF7344F24022C0F20F021A6007F11403ED
S11309B0184604F061FE03464BF27C60C0F200006E
S11309C04FF4A7714BF60822C0F20002FFF764FC53
S11309D04FF00003BB6103E0BB6903F10103BB619A
S11309E0BA694EF2D813C1F6FF731B689A42F3D367
S11309F007F11003184604F03FFE03464BF27C60F7
S1130A00C0F200004FF4A8714BF61C22C0F20002A1
S1130A10FFF742FC3A697B69C3EB020248F20043E8
S1130A20C1F2D773B3FBF2F24EF2D813C1F6FF73DF
S1130A301A604EF2D813C1F6FF731A684CF6CD4310
S1130A40CCF6CC43A3FB02134FEA93024EF2D0132D
S1130A50C1F6FF731A604FF0020003F0A5FB0346D2
S1130A604BF27C60C0F2000040F259114BF6302288
S1130A70C0F20002FFF710FC4FF0030003F094FBF8
S1130A8003464BF27C60C0F200004FF4AD714BF6AC
S1130A904022C0F20002FFF7FFFB4FF0040003F016
S1130AA083FB03464BF27C60C0F2000040F25B1112
S1130AB04BF65022C0F20002FFF7EEFB07F12303CE
S1130AC04FF0010019464FF0010206F019F80346F1
S1130AD04BF27C60C0F2000040F261114BF66022E0
S1130AE0C0F20002FFF7D8FB97F82330A3F13103DB
S1130AF0492B00F2628301A252F823F03B0C000060
S1130B00490C0000570C0000BB110000BB11000091
S1130B10BB110000BB110000BB110000BB110000A1
S1130B20BB110000BB110000910D0000590D000025
S1130B30210D0000BB110000BB110000990C000046
S1130B40CF10000063100000BB110000BB110000B7
S1130B50BB110000C90D0000BB110000BB11000057
S1130B60BB110000BB110000BB110000BB11000051
S1130B70BB110000BB110000BB110000BB11000041
S1130B80BB110000250C0000BB110000BB110000CC
S1130B9003110000570E00007F0F0000250C000019
S1130BA0250C0000BB110000BB110000BB110000AC
S1130BB0BB110000BB110000BB110000650C00005C
S1130BC0971000002F100000250C0000250C0000D9
S1130BD0BB110000BB110000BB110000BB110000E1
S1130BE0BB110000BB110000AB0E0000130F00008E
S1130BF0BB110000BB110000BB11000089110000F3
S1130C00B70F0000250C0000ED0C0000DF0E000003
S1130C1061110000230E0000470F0000250C0000A6
S1130C20250C0000BB6A03F1FF3297F823104EF243
S1130C30D413C1F6FF739954BFE24FF00103BB62B2
S1130C404FF002037B62B8E24FF00203BB624FF045
S1130C5003037B62B1E24FF00303BB624FF0040372
S1130C607B62AAE24FF006004BF68421C0F2000139
S1130C70BA6A06F05FFB786A03F096FA03464BF211
S1130C807C60C0F2000040F27B114BF69422C0F26B
S1130C900002FFF701FB90E24FF006004BF6A4219F
S1130CA0C0F20001BA6A06F045FB786A03F0E2FA82
S1130CB00346FB624BF27C60C0F2000040F27F11FD
S1130CC04BF6B422C0F20002FB6AFFF7E5FAFB6AB6
S1130CD0002BC0F26D824FF005004BF6CC21C0F220
S1130CE00001BA6AFB6A06F025FB66E24FF00600D3
S1130CF04BF6E421C0F20001BA6A06F01BFB786AE5
S1130D0003F076FB03464BF27C60C0F200004FF424
S1130D10C3714BF6F422C0F20002FFF7BDFA4CE2B5
S1130D204FF006004BF60431C0F20001BA6A06F037
S1130D3001FB786A4FF0090103F0D6FB03464BF23E
S1130D407C60C0F200004FF4C5714BF62032C0F253
S1130D500002FFF7A1FA30E24FF006004BF64031F3
S1130D60C0F20001BA6A06F0E5FA786A4FF00A01A7
S1130D7003F0BAFB03464BF27C60C0F200004FF470
S1130D80C7714BF65C32C0F20002FFF785FA14E239
S1130D904FF006004BF67C31C0F20001BA6A06F04F
S1130DA0C9FA786A4FF00B0103F09EFB03464BF23D
S1130DB07C60C0F200004FF4C9714BF69832C0F267
S1130DC00002FFF769FAF8E14FF006004BF6B8317C
S1130DD0C0F20001BA6A06F0ADFA07F11C03786AA2
S1130DE0194603F0F1FB0346FB624BF27C60C0F250
S1130DF000004FF4CB714BF6D032C0F20002FB6A14
S1130E00FFF74AFAFB6A002BC0F2D481FB694FF06A
S1130E1005004BF6F031C0F20001BA6A06F08AFA16
S1130E20CBE14FF006004BF60C41C0F20001BA6A68
S1130E3006F080FA786A03F0ADFD03464BF27C605D
S1130E40C0F2000040F29D114BF61C42C0F20002B9
S1130E50FFF722FAB1E14FF006004BF62C41C0F245
S1130E600001BA6A06F066FA786A03F003FE0346E4
S1130E70FB624BF27C60C0F2000040F2A1114BF621
S1130E803C42C0F20002FB6AFFF706FAFB6A002B41
S1130E90C0F292814FF005004BF65441C0F20001BC
S1130EA0BA6AFB6A06F046FA87E14FF006004BF691
S1130EB06C41C0F20001BA6A06F03CFA786A03F0A9
S1130EC033FE03464BF27C60C0F200004FF4D47151
S1130ED04BF67C42C0F20002FFF7DEF96DE14FF001
S1130EE006004BF68C41C0F20001BA6A06F022FA01
S1130EF0786A03F065FE03464BF27C60C0F20000A2
S1130F004FF4D6714BF69C42C0F20002FFF7C4F9CD
S1130F1053E14FF006004BF6AC41C0F20001BA6A4F
S1130F2006F008FA786A03F0D5FE03464BF27C60BB
S1130F30C0F200004FF4D8714BF6BC42C0F200027C
S1130F40FFF7AAF939E14FF006004BF6CC41C0F2A5
S1130F500001BA6A06F0EEF9786A4FF0010102F076
S1130F609DFE03464BF27C60C0F200004FF4DA7140
S1130F704BF6E442C0F20002FFF78EF91DE14FF098
S1130F8006004BF6FC41C0F20001BA6A06F0D2F941
S1130F90786A4FF0020102F081FE03464BF27C6056
S1130FA0C0F200004FF4DC714BF61452C0F20002A0
S1130FB0FFF772F901E14FF006004BF62C51C0F235
S1130FC0000106F0B7F94FF0090001F02FFF0346C6
S1130FD04BF27C60C0F200004FF4DE714BF64852D5
S1130FE0C0F20002FFF758F94FF00A0001F01EFFAB
S1130FF003464BF27C60C0F2000040F2BD114BF698
S11310006052C0F20002FFF747F94FF00B0001F005
S11310100DFF03464BF27C60C0F200004FF4DF7119
S11310204BF67852C0F20002FFF736F9C5E04FF0F4
S113103006004BF69051C0F2000106F07BF94FF028
S1131040010001F01BF903464BF27C60C0F2000082
S11310504FF4E1714BF69C52C0F20002FFF71CF909
S1131060ABE04FF006004BF6B051C0F2000106F0C1
S113107061F94FF0010001F05BF903464BF27C602B
S1131080C0F200004FF4E3714BF6BC52C0F2000210
S1131090FFF702F991E04FF006004BF6D051C0F291
S11310A0000106F047F94FF0010041F2883100F0E9
S11310B0B9FE03464BF27C60C0F200004FF4E571C8
S11310C04BF6E452C0F20002FFF7E6F875E04FF089
S11310D006004BF6FC51C0F2000106F02BF94FF06C
S11310E0010000F001FF03464BF27C60C0F20000F7
S11310F04FF4E7714BF60862C0F20002FFF7CCF838
S11311005BE007F10C03184604F0FEFA03464BF2C9
S11311107C60C0F2000040F2D3114BF61C62C0F2B6
S11311200002FFF7B9F807F10803184604F0ECFAD7
S113113003464BF27C60C0F200004FF4EA714BF6B8
S11311403062C0F20002FFF7A7F8FA68BB684FF0FC
S113115005004BF64461C0F2000106F0EBF82CE008
S11311604FF07F004FF0010106F0C8F803464BF240
S11311707C60C0F200004FF4EF714BF63C12C0F2F9
S11311800002FFF789F818E04FF03F004FF001012B
S113119006F0B4F803464BF27C60C0F200004FF452
S11311A0F1714BF66062C0F20002FFF775F804E0DB
S11311B000BF02E000BF00E000BF97F82330032B1C
S11311C004D097F82330512B7FF478AC4FF005000E
S11311D04BF69C61C0F2000106F0ACF804F07AFD15
S11311E003464BF27C60C0F200004FF4FD714BF6F5
S11311F0B802C0F20002FFF74FF84BF27C63C0F272
S113120000034BF2DC62C0F2000200924FF00000D7
S11312104FF002011A4640F2FB13FFF723F8FFF7E1
S11312201BF807F13007BD4680BD00BF80B400AF96
S1131230BD4680BC704700BF80B58CB000AFF8607D
S1131240B9607A603B60BB683B617B68BB613B68AB
S1131250FB61BB6B3B6207F11003F868194605F0AC
S113126049FF07F13007BD4680BD00BF80B485B09B
S113127000AF78607B681B68FB60FB68184607F169
S11312801407BD4680BC704780B483B000AF78605B
S113129039607B683A681A6007F10C07BD4680BC68
S11312A0704700BF80B483B000AFEFF305837B6069
S11312B07B68184607F10C07BD4680BC704700BF29
S11312C080B584B000AF78607B684FEA53124BF26C
S11312D0B053C0F2000353F822207B6803F01F03CD
S11312E04FF0010101FA03F302EA0303002B02D1D8
S11312F04FF0000331E07B680F2B13D14EF2100046
S1131300CEF20000FFF7B2FF0346FB60FB6823F058
S11313100203FB604EF21000CEF20000F968FFF702
S1131320B3FF18E07B68A3F11003FB60FB684FEA8E
S113133053134FEA83024EF28013CEF20003134498
S1131340FA6802F01F024FF0010101FA02F2184696
S11313501146FFF799FF4FF00103184607F11007F4
S1131360BD4680BD80B584B000AF78607B684FEA2D
S113137053124BF2B053C0F2000353F822207B689F
S113138003F01F034FF0010101FA03F302EA030320
S1131390002B02D14FF0000331E07B680F2B13D1F7
S11313A04EF21000CEF20000FFF760FF0346FB6030
S11313B0FB6843F00203FB604EF21000CEF2000023
S11313C0F968FFF761FF18E07B68A3F11003FB6085
S11313D0FB684FEA53134FEA83024EF20013CEF236
S11313E000031344FA6802F01F024FF0010101FAEE
S11313F002F218461146FFF747FF4FF00103184663
S113140007F11007BD4680BD80B584B000AF786099
S113141039607B68032B0DD97B680F2B0AD87B6856
S11314204FEA93024BF6D063C0F2000353F8223024
S1131430FB6012E07B680F2B36D97B682F2B35D8E5
S11314407B68A3F110034FEA930303F1605303F5A0
S113145064534FEA8303FB6000BFFB681846FFF741
S113146005FF0346BB607B6803F003034FEAC30335
S11314704FF0FF0202FA03F36FEA0303BA6802EAC9
S11314800303BB607B6803F003034FEAC3033A68BA
S113149002FA03F3BA6842EA0303BB60FB68184626
S11314A0B968FFF7F1FE02E000BF00E000BF07F1FA
S11314B01007BD4680BD00BF80B584B000AF786022
S11314C07B68052B17D0062B29D0042B3AD14EF676
S11314D02450CEF20000FFF7C9FE0346FB60FB6810
S11314E043F48033FB604EF62450CEF20000F968DA
S11314F0FFF7CAFE26E04EF62450CEF20000FFF7B6
S1131500B5FE0346FB60FB6843F40033FB604EF614
S11315102450CEF20000F968FFF7B6FE12E04EF652
S11315202450CEF20000FFF7A1FE0346FB60FB68E7
S113153043F48023FB604EF62450CEF20000F96899
S1131540FFF7A2FE07F11007BD4680BD80B500AFCE
S11315504EF2E013C1F6FF734FF001021A604EF22F
S1131560DC13C1F6FF734FF000021A604CF21873DB
S1131570C0F200034EF60850CEF200001946FFF701
S113158083FE4FF003004FF00001FFF73DFF4FF0E3
S113159004004FF00001FFF737FF4FF005004FF054
S11315A00001FFF731FF4FF006004FF00001FFF795
S11315B02BFF4FF00B004FF00001FFF725FF4FF01A
S11315C00C004FF00001FFF71FFF4FF00E004FF02B
S11315D00001FFF719FF4FF00B00FFF7C3FE80BDBA
S11315E080B582B000AF40F20003C0F200037B601C
S11315F07B68002B01D07B68984707F10807BD463C
S113160080BD00BF80B586B002AFF860B9607A6073
S1131610FB680E2B02D9FB682F2B13D94BF6E06322
S1131620C0F200034BF60C72C0F2000200924FF0BD
S113163000004FF002011A464FF0E103FFF7FCFDF2
S1131640FFF7F4FD7B6813F1070F02DB7B68002BC7
S113165013DB4BF6E063C0F200034BF62872C0F2D2
S1131660000200924FF000004FF002011A464FF0C2
S1131670E203FFF7E1FDFFF7D9FDF868FFF720FE6D
S11316807B68DBB2C3F10003DBB2DBB2C3F1080356
S11316904FEA4313F8681946FFF7B6FEBB6803F038
S11316A00103DBB2002B02D0F868FFF75BFE07F101
S11316B01007BD4680BD00BF80B58AB004AF786016
S11316C07B6803F104031B68BB607B6803F12003A0
S11316D01B68FB607B6803F124031B683B61FFF715
S11316E0E1FD03464FEAC3534FEAD3537B614FF006
S11316F000004BF65871C0F2000105F01BFE3B6977
S11317000093BB6801937B6802934FF000004BF693
S11317107871C0F200017A69FB6805F00BFE05F0F0
S113172039FF00BF80B58AB004AF78607B6803F1ED
S113173004031B68BB607B6803F120031B68FB6028
S11317407B6803F124031B683B61FFF7ABFD034691
S11317504FEAC3534FEAD3537B614FF000004BF67B
S1131760BC71C0F2000105F0E5FD3B690093BB6864
S113177001937B6802934FF000004BF67871C0F23E
S113178000017A69FB6805F0D5FD05F003FF00BF91
S11317902DE9F04F90480168C1F818D0DFF83CE219
S11317A0C1F81CE0D0E0BDE8F04F887B10F0040FD6
S11317B008D00869004205D089490868004201D070
S11317C088480047704700BFEFF31382C2B9EFF3B4
S11317D01182202A14D01EF0040F07D0EFF30980E1
S11317E020E9044080F3098800B502E004B400B5A0
S11317F06846EFF305837C4951F8232090473EE087
S11318001EF0040F07D0EFF3098020E9044080F3B1
S1131810098800B502E004B400B56846EFF3058317
S1131820714951F82320904771B608BC13F0040F96
S113183001D102BC05E0EFF30982043202CA82F34B
S1131840098881F311881847EFF311821EF0040F01
S113185007D0EFF3098020E9044080F3098800B53C
S113186002E004B400B56846EFF305835E4951F81D
S113187023205E4951F823E08EF31188904771B616
S113188008BC13F0040F01D102BC07E0EFF3098296
S113189003CA82F309885648026812B981F3118891
S11318A018474FF000010160524981F311884FF04D
S11318B00101514801605149514801605148524960
S11318C0EFF3098222E90300183A82F309881847E2
S11318D0414801684D48026872B14D48026891421E
S11318E00AD02DE9F00FC1F818D0DFF828E1C1F8CB
S11318F01CE029E0BDE8F00F887B10F0040F06D04F
S1131900086920B13649086808B102F0BBF800DF65
S113191071B6EFF30980203080F309884FF000009E
S113192035490860354981F3118870473A480168A0
S113193081F308882F4981F3118861B64FF00200C2
S113194080F31488BFF36F8F31480168224A116015
S113195019B1D1F818D0D1F81CF04FF0000080F381
S11319601488BFF36F8F4FF00004224D204E224F96
S11319703C6072B684F3118830BF62B685F3118877
S113198030680028F5D034604FF0020080F31488EA
S1131990BFF36F8F4FF001023A6019480460D3E738
S11319A04FF0000080F31488BFF36F8F1B4800478B
S11319B04FF00000104C206080F31188DFF860E0E5
S11319C08A68506891680847A038002800DC70478E
S11319D064380028FCDC704778E2FF1FA71700007A
S11319E07CE2FF1F853A0000F0B40000BCB50000A3
S11319F0E8E1FF1F20000000E0E1FF1F00000000FD
S1131A00DCE1FF1FD0180000000000016CE2FF1FA2
S1131A10E4E1FF1FF5180000ECB40000F55C0000E1
S1131A201943000080B485B000AF78607B681B6800
S1131A30FB60FB68184607F11407BD4680BC70477D
S1131A4080B483B000AF786039607B683A681A600C
S1131A5007F10C07BD4680BC704700BF80B483B05B
S1131A6000AF786007F10C07BD4680BC704700BF2B
S1131A7080B483B000AF786007F10C07BD4680BC2A
S1131A80704700BF80B584B000AF786045F6BF539F
S1131A90BB604EF21000CEF20000FFF7C3FF034616
S1131AA0FB60FB6823F00103FB604EF21000CEF2F2
S1131AB00000F968FFF7C4FF4EF21400CEF20000F4
S1131AC0B968FFF7BDFF4EF21800CEF20000B96806
S1131AD0FFF7B6FF4EF21000CEF20000FFF7A2FFB0
S1131AE00346FB60FB6843F00503FB604EF2100005
S1131AF0CEF20000F968FFF7A3FF07F11007BD4617
S1131B0080BD00BF80B582B000AF78604EF2100097
S1131B10CEF200004FF00001FFF792FF07F1080733
S1131B20BD4680BD80B500AF4EF21000CEF200007D
S1131B30FFF778FF4FF00F00FFF790FF03F064FC0E
S1131B404FF00F00FFF794FF80BD00BF80B400AFDB
S1131B50BD4680BC704700BF80B58CB000AFF86054
S1131B60B9607A603B60BB683B617B68BB613B6882
S1131B70FB61BB6B3B6207F11003F868194605F083
S1131B80B9FA07F13007BD4680BD00BF80B483B009
S1131B9000AF78607B6883F3118807F10C07BD46BA
S1131BA080BC704780B483B000AFEFF311837B60D7
S1131BB07B68184607F10C07BD4680BC704700BF20
S1131BC080B483B000AFEFF314837B607B68184666
S1131BD007F10C07BD4680BC704700BF80B500AF5D
S1131BE0FFF7EEFF034603F00203002B02D04FF091
S1131BF0000301E04FF00103184680BD80B582B0B8
S1131C0000AFFFF7CFFF03467B607B68202B02D831
S1131C107B68002B03D14FF02000FFF7B7FF4EF293
S1131C20DC13C1F6FF737A681A604EF2E013C1F652
S1131C30FF734FF001021A6007F10807BD4680BD2B
S1131C4080B500AF4EF2E013C1F6FF734FF000020F
S1131C501A604EF2DC13C1F6FF731B681846FFF7D7
S1131C6095FF80BD80B400AF4EF2E013C1F6FF7360
S1131C701B681846BD4680BC704700BF80B584B061
S1131C8000AF78607B68DBB203F10803DBB24FEA94
S1131C904313FB737B68002B02D14FF00003FB73EB
S1131CA04EF2E013C1F6FF731B68002B04D1FB7BDB
S1131CB01846FFF76BFF14E0FA7B4EF2DC13C1F613
S1131CC0FF731A60FB7B1F2B07D8FB7B002B04D010
S1131CD0FB7B1846FFF75AFF03E04FF02000FFF7A5
S1131CE055FF07F11007BD4680BD00BF80B582B027
S1131CF000AF4EF2E013C1F6FF731B68002B04D152
S1131D00FFF750FF0346FB7105E04EF2DC13C1F60A
S1131D10FF731B68FB71FB79002B02D14FF00003AA
S1131D2005E0FB794FEA5313DBB2A3F1080318462D
S1131D3007F10807BD4680BD80B586B002AFF860E4
S1131D40B9607A603B60BB68002B13DA4BF6DC7336
S1131D50C0F200034BF6F872C0F2000200924FF09A
S1131D6000004FF002011A464FF0A003FFF7F4FE03
S1131D70FFF7ECFEFB687A685A60FB683A689A6081
S1131D804EF28823C1F6FF731A68BB681344F868DF
S1131D90194603F0FFF907F11007BD4680BD00BFE7
S1131DA080B582B000AF7860786803F02DFA07F14F
S1131DB00807BD4680BD00BF80B483B000AF4EF2BB
S1131DC01C13C1F6FF737B604FF000033B601AE005
S1131DD03A6813464FEA430313444FEA83031A460F
S1131DE04BF29043C0F200031A447B681A607B688C
S1131DF04FF000025A607B6803F114037B603B6878
S1131E0003F101033B604BF28C43C0F200031B68F7
S1131E101A463B689A42DBD807F10C07BD4680BCE2
S1131E20704700BF80B584B000AF78603960FFF7B9
S1131E30D5FE0346002B04D1FFF714FF0346002B05
S1131E4003D06FF01803FB6048E07B68002B07DDCC
S1131E504BF28C43C0F200031B687A689A4203DD9C
S1131E606FF01103FB6039E03B68002B03DA6FF07D
S1131E701003FB6032E07B6803F1FF3213464FEA44
S1131E80830313444FEA83031A464EF21C13C1F62C
S1131E90FF731344BB60FFF7B1FEBB685B68002BA4
S1131EA006D0BB6803F108031846FFF779FF03E087
S1131EB0BB684FF001025A60BB6803F1080241F6A7
S1131EC08173C0F20003104639681A46BB68FFF7F5
S1131ED033FF4FF00003FB60FFF7B2FEFB681846C8
S1131EE007F11007BD4680BD80B584B000AF7860AF
S1131EF0FFF774FE0346002B04D1FFF7B3FE03463D
S1131F00002B03D06FF01803FB6033E07B68002BD9
S1131F1007DD4BF28C43C0F200031B687A689A42D7
S1131F2003DD6FF01103FB6024E07B6803F1FF32F3
S1131F3013464FEA830313444FEA83031A464EF2CF
S1131F401C13C1F6FF731344BB60FFF757FEBB6855
S1131F505B68002B09D0BB684FF000025A60BB6875
S1131F6003F108031846FFF71BFF4FF00003FB6063
S1131F70FFF766FEFB68184607F11007BD4680BDF3
S1131F8080B584B000AF78607B684FF000025A607F
S1131F90FFF7ACFE0346FB60FFF752FE7B681B684D
S1131FA09B687A681268526810469847FFF75AFE91
S1131FB00346002B01D1FFF721FEF868FFF75EFE10
S1131FC007F11007BD4680BD80B483B000AF7860D0
S1131FD07B6883F3118807F10C07BD4680BC70470A
S1131FE080B483B000AFEFF311837B607B68184645
S1131FF007F10C07BD4680BC704700BF80B483B0B6
S113200000AFEFF314837B607B68184607F10C077D
S1132010BD4680BC704700BF80B500AFFFF7EEFF40
S1132020034603F00203002B02D04FF0000301E04B
S11320304FF00103184680BD80B582B000AFFFF7B2
S1132040CFFF03467B607B68202B02D87B68002B84
S113205003D14FF02000FFF7B7FF4EF2DC13C1F6B7
S1132060FF737A681A604EF2E013C1F6FF734FF003
S113207001021A6007F10807BD4680BD80B500AFB4
S11320804EF2E013C1F6FF734FF000021A604EF2F5
S1132090DC13C1F6FF731B681846FFF795FF80BD7C
S11320A080B400AF4EF2E013C1F6FF731B6818460C
S11320B0BD4680BC704700BF80B584B000AF786077
S11320C07B68DBB203F10803DBB24FEA4313FB7313
S11320D07B68002B02D14FF00003FB734EF2E01338
S11320E0C1F6FF731B68002B04D1FB7B1846FFF776
S11320F06BFF14E0FA7B4EF2DC13C1F6FF731A6037
S1132100FB7B1F2B07D8FB7B002B04D0FB7B1846E3
S1132110FFF75AFF03E04FF02000FFF755FF07F1E8
S11321201007BD4680BD00BF80B582B000AF4EF23F
S1132130E013C1F6FF731B68002B04D1FFF750FFB7
S11321400346FB7105E04EF2DC13C1F6FF731B6816
S1132150FB71FB79002B02D14FF0000305E0FB7902
S11321604FEA5313DBB2A3F10803184607F108073B
S1132170BD4680BD80B584B000AFF860B9607A60B8
S11321803B60FB687A685A60FB683A689A60F86852
S1132190B96802F0FFFF07F11007BD4680BD00BF1C
S11321A080B582B000AF7860786803F02DF807F14D
S11321B00807BD4680BD00BF80B582B000AF78601F
S11321C039607B6803F10C0242F2C933C0F20003A8
S11321D0104639681A467B68FFF7CCFF7B683A687B
S11321E09A6007F10807BD4680BD00BF80B582B084
S11321F000AF4EF2AC03C1F6FF737B604FF00003F7
S11322003B602DE03A6813464FEA830313444FEAD8
S113221083031A464BF27843C0F200031A447B68E6
S11322201A607B681B681B6803F00203002B0BD049
S11322307B684FF001025A607B681B681B697868F1
S11322401946FFF7B9FF03E07B684FF000025A60BC
S11322507B6803F118037B603B6803F101033B6077
S11322604BF27443C0F200031B681A463B689A425F
S1132270C8D807F10807BD4680BD00BF80B584B04B
S113228000AF7860FFF7C8FE0346002B04D1FFF7C8
S113229007FF0346002B03D06FF01803FB6041E0F7
S11322A07B68002B07DD4BF27443C0F200031B680C
S11322B07A689A4203DD6FF01103FB6032E07B68B9
S11322C003F1FF3213464FEA430313444FEAC303B7
S11322D01A464EF2AC03C1F6FF731344BB60FFF71A
S11322E0ABFEBB685B68002B06D0BB6803F10C0334
S11322F01846FFF755FF03E0BB684FF001025A6030
S1132300BB681B681A694EF28823C1F6FF731B6809
S11323101344B8681946FFF74FFF4FF00003FB6002
S1132320FFF7ACFEFB68184607F11007BD4680BDF9
S113233080B584B000AF7860FFF76EFE0346002BD3
S113234004D1FFF7ADFE0346002B03D06FF0180352
S1132350FB6033E07B68002B07DD4BF27443C0F273
S113236000031B687A689A4203DD6FF01103FB6077
S113237024E07B6803F1FF3213464FEA430313441E
S11323804FEAC3031A464EF2AC03C1F6FF7313447B
S1132390BB60FFF751FEBB685B68002B09D0BB68CC
S11323A04FF000025A60BB6803F10C031846FFF7B4
S11323B0F7FE4FF00003FB60FFF760FEFB68184672
S11323C007F11007BD4680BD80B584B000AF7860CA
S11323D07B689A687B681B68DB68134478681946D5
S11323E0FFF7EAFEFFF7A0FE0346FB60FFF746FE99
S11323F07B681B689B687A68126852681046984725
S1132400FFF74EFE0346002B01D1FFF715FEF868D7
S1132410FFF752FE07F11007BD4680BD80B582B0BC
S113242000AF786039607868FFF746F807F108076D
S1132430BD4680BD80B485B000AF78607B681B6802
S1132440FB60FB6803F00403002B02D04FF0000391
S113245001E04FF00103184607F11407BD4680BCA4
S1132460704700BF80B483B000AF78607B6803F12D
S113247004031B68184607F10C07BD4680BC70476F
S113248080B582B000AF78607868FFF7D3FF034669
S1132490002B08D17868FFF7E5FF0346002B02D133
S11324A04FF0010301E04FF00003184607F108075D
S11324B0BD4680BD80B582B000AF4BF2D843C0F2B8
S11324C000037B604FF000033B600FE07B681A68F9
S11324D07B689B6810461946FFF7A0FF7B6803F1F1
S11324E00C037B603B6803F101033B604BF2D44374
S11324F0C0F200031B683A689A42E7D307F1080761
S1132500BD4680BD80B584B000AF78607868FFF7C1
S1132510B7FF0346002B06D04EF27423C1F6FF73B7
S11325201B68002B02D04FF0010301E04FF00003C1
S1132530FB60FB68184607F11007BD4680BD00BF6D
S113254080B584B000AF78607868FFF799FF0346E0
S1132550002B09D04EF27823C1F6FF731B689B7BD6
S113256003F00403002B02D14FF0010301E04FF00C
S11325700003FB60FB68184607F11007BD4680BDE9
S113258080B485B000AF78607B681B68FB60FB6833
S1132590184607F11407BD4680BC704780B483B069
S11325A000AF786039607B683A681A6007F10C07FD
S11325B0BD4680BC704700BF80B483B000AF786074
S11325C07B6883F3118807F10C07BD4680BC704714
S11325D080B483B000AFEFF311837B607B6818464F
S11325E007F10C07BD4680BC704700BF80B483B0C0
S11325F000AFEFF314837B607B68184607F10C0788
S1132600BD4680BC704700BF80B500AFFFF7EEFF4A
S1132610034603F00203002B02D04FF0000301E055
S11326204FF00103184680BD80B582B000AFFFF7BC
S1132630CFFF03467B607B68202B02D87B68002B8E
S113264003D14FF02000FFF7B7FF4EF2DC13C1F6C1
S1132650FF737A681A604EF2E013C1F6FF734FF00D
S113266001021A6007F10807BD4680BD80B500AFBE
S11326704EF2E013C1F6FF734FF000021A604EF2FF
S1132680DC13C1F6FF731B681846FFF795FF80BD86
S113269080B400AF4EF2E013C1F6FF731B68184616
S11326A0BD4680BC704700BF80B483B000AF786083
S11326B0396007F10C07BD4680BC704780B584B013
S11326C000AF78607B684FEA53124BF2B053C0F20C
S11326D0000353F822207B6803F01F034FF001012D
S11326E001FA03F302EA0303002B02D14FF00003C3
S11326F031E07B680F2B13D14EF21000CEF20000B4
S1132700FFF73EFF0346FB60FB6843F00203FB60F8
S11327104EF21000CEF20000F968FFF73FFF18E018
S11327207B68A3F11003FB60FB684FEA53134FEA85
S113273083024EF20013CEF200031344FA6802F04F
S11327401F024FF0010101FA02F218461146FFF789
S113275025FF4FF00103184607F11007BD4680BD61
S113276080B584B000AF4BF2A043C0F20003BB605D
S11327704FF000037B600FE0BB681A68BB689B687E
S113278010461946FFF790FFBB6803F10C03BB60CA
S11327907B6803F101037B604BF29C43C0F20003AE
S11327A01B687A689A42E7D34BF2BC43C0F2000339
S11327B0FB604FF000037B6012E0FB681968FB6864
S11327C05A68FB689B68084611461A46FEF71AFFCA
S11327D0FB6803F10C03FB607B6803F101037B607E
S11327E04BF2B843C0F200031B687A689A42E4D300
S11327F007F11007BD4680BD80B584B000AF786096
S1132800FFF702FF0346002B03D06FF01803FB60B1
S113281024E07B680E2B02D97B682F2B03D96FF041
S11328201003FB601AE0FFF733FF0346BB60BB688D
S1132830002B01D1FFF7F8FE7868FFF73FFF03464E
S1132840002B03D04FF00003FB6002E06FF028037D
S1132850FB60BB68002B01D1FFF708FFFB6818463B
S113286007F11007BD4680BD80B400AFBD4680BCF3
S1132870704700BF80B58CB000AFF860B9607A6073
S11328803B60BB683B617B68BB613B68FB61BB6BC6
S11328903B6207F11003F868194604F02BFC07F1BA
S11328A03007BD4680BD00BF80B483B000AF786000
S11328B07B6883F3118807F10C07BD4680BC704721
S11328C080B483B000AFEFF311837B607B6818465C
S11328D007F10C07BD4680BC704700BF80B483B0CD
S11328E000AFEFF314837B607B68184607F10C0795
S11328F0BD4680BC704700BF80B500AFFFF7EEFF58
S1132900034603F00203002B02D04FF0000301E062
S11329104FF00103184680BD80B582B000AFFFF7C9
S1132920CFFF03467B607B68202B02D87B68002B9B
S113293003D14FF02000FFF7B7FF4EF2DC13C1F6CE
S1132940FF737A681A604EF2E013C1F6FF734FF01A
S113295001021A6007F10807BD4680BD80B500AFCB
S11329604EF2E013C1F6FF734FF000021A604EF20C
S1132970DC13C1F6FF731B681846FFF795FF80BD93
S113298080B400AF4EF2E013C1F6FF731B68184623
S1132990BD4680BC704700BF80B483B000AF786090
S11329A07B687A681A607B681A687B685A6007F1EA
S11329B00C07BD4680BC704780B586B002AF786016
S11329C07B681A687B689A4213D14CF20C03C0F2FC
S11329D000034CF22402C0F2000200924FF0000007
S11329E04FF002011A464FF08603FFF743FFFFF74B
S11329F03BFF7B681B68FB60FB681A687B681A6096
S1132A00FB681B687A685A60FB68184607F1100770
S1132A10BD4680BD80B584B002AF78607B681A681B
S1132A207B689A421BD17B685A687B689A4213D0B0
S1132A304CF20C03C0F200034CF24002C0F200025C
S1132A4000924FF000004FF002011A464FF0960337
S1132A50FFF710FFFFF708FF4FF0010301E04FF00D
S1132A600003184607F10807BD4680BD80B582B053
S1132A7000AF4EF2C403C1F6FF737B604FF0000356
S1132A803B601FE07B681846FFF786FF3A681346F1
S1132A904FEA430313444FEA83031A464BF2484375
S1132AA0C0F200031A447B689A607B689B685A688A
S1132AB07B68DA607B6803F110037B603B6803F199
S1132AC001033B604BF24443C0F200031B681A4607
S1132AD03B689A42D6D807F10807BD4680BD00BFBF
S1132AE080B586B000AF7860FFF706FF0346002B81
S1132AF004D1FFF745FF0346002B03D06FF0180302
S1132B007B614BE07B68002B07DD4BF24443C0F252
S1132B1000031B687A689A4203DD6FF011037B613E
S1132B203CE07B6803F1FF334FEA03131A464EF28D
S1132B30C403C1F6FF731344FB60FFF7EDFEFB68AB
S1132B401846FFF767FF0346002B11D1FB681846B0
S1132B50FFF732FF03463B61386902F0E9FF0346A1
S1132B60002B01D0FEF714FE4FF000037B6113E04D
S1132B70FB68DA68FB689B689B689A4209D2FB6829
S1132B80DB6803F10102FB68DA604FF000037B614C
S1132B9002E06FF02A037B61FFF7E0FE7B691846D1
S1132BA007F11807BD4680BD80B586B000AF7860D8
S1132BB0FFF7A2FE0346002B04D0FFF7E1FE034615
S1132BC0002B03D06FF018037B6150E07B68002B6F
S1132BD007DD4BF24443C0F200031B687A689A4253
S1132BE003DD6FF011037B6141E07B6803F1FF3388
S1132BF04FEA03131A464EF2C403C1F6FF7313449B
S1132C00FB60FFF789FEFB681846FFF703FF0346E6
S1132C10002B16D1FB681846FFF7CEFE03463B6136
S1132C20386902F085FF0346002B06D04EF2E81304
S1132C30C1F6FF734FF001021A604FF000037B618D
S1132C4013E0FB68DA68FB689B689B689A4209D2C8
S1132C50FB68DB6803F10102FB68DA604FF00003F4
S1132C607B6102E06FF02A037B61FFF777FE7B69EB
S1132C70184607F11807BD4680BD00BF80B586B071
S1132C8000AF7860FFF738FE0346002B0BD1FFF747
S1132C9077FE0346002B06D14EF26C23C1F6FF7378
S1132CA01B68002B03D16FF018037B613FE07B6846
S1132CB0002B07DD4BF24443C0F200031B687A6823
S1132CC09A4203DD6FF011037B6130E07B6803F10E
S1132CD0FF334FEA03131A464EF2C403C1F6FF73DF
S1132CE013443B61FFF718FE3B69DB68002B09D0F6
S1132CF03B69DB6803F1FF323B69DA604FF00003A4
S1132D007B6112E04EF27823C1F6FF731B684FF02B
S1132D1022021A733A6907F108031046194602F0B1
S1132D209BFFFEF735FDBB687B61FFF717FE7B69F0
S1132D30184607F11807BD4680BD00BF80B483B0B4
S1132D4000AF78607B6883F3118807F10C07BD46F8
S1132D5080BC704780B483B000AFEFF311837B6015
S1132D607B68184607F10C07BD4680BC704700BF5E
S1132D7080B483B000AFEFF314837B607B681846A4
S1132D8007F10C07BD4680BC704700BF80B500AF9B
S1132D90FFF7EEFF034603F00203002B02D04FF0CF
S1132DA0000301E04FF00103184680BD80B582B0F6
S1132DB000AFFFF7CFFF03467B607B68202B02D870
S1132DC07B68002B03D14FF02000FFF7B7FF4EF2D2
S1132DD0DC13C1F6FF737A681A604EF2E013C1F691
S1132DE0FF734FF001021A6007F10807BD4680BD6A
S1132DF080B500AF4EF2E013C1F6FF734FF000024E
S1132E001A604EF2DC13C1F6FF731B681846FFF715
S1132E1095FF80BD80B400AF4EF2E013C1F6FF739E
S1132E201B681846BD4680BC704700BF80B584B09F
S1132E3000AF7860FFF7AAFF0346002B04D1FFF729
S1132E40E9FF0346002B03D06FF01803FB6029E071
S1132E507B68002B02DD7B68102B06DD7B68002B72
S1132E6003D06FF01003FB601CE0FFF79FFF7B684B
S1132E70002B06D14EF27823C1F6FF731B685B7BEF
S1132E8002E07B6803F1FF33BB60B86800F0BAFD71
S1132E900346002B01D0FEF77BFC4FF00003FB60E0
S1132EA0FFF7A6FFFB68184607F11007BD4680BD73
S1132EB080B584B000AF7860FFF768FF0346002B4D
S1132EC004D0FFF7A7FF0346002B03D06FF01803CD
S1132ED0FB6020E07B68002B02DD7B68102B03DDA8
S1132EE06FF01003FB6016E0FFF760FF7B6803F1EF
S1132EF0FF33184600F086FD0346002B06D04EF241
S1132F00E813C1F6FF734FF001021A604FF000039B
S1132F10FB60FFF76DFFFB68184607F11007BD461D
S1132F2080BD00BF80B584B000AF7860FFF72EFF8E
S1132F300346002B04D0FFF76DFF0346002B03D09C
S1132F406FF01803FB6022E0FFF730FF4EF27823A6
S1132F50C1F6FF731B68002B10D04EF27823C1F624
S1132F60FF731B681A464EF23013C1F6FF73C3EBAE
S1132F7002034FEA631303F1010301E04FF000037E
S1132F807A6813604FF00003FB60FFF731FFFB68C2
S1132F90184607F11007BD4680BD00BF80B582B05A
S1132FA000AFFFF7F3FE0346002B03D06FF01803C6
S1132FB07B6009E0FFF72EFF0346002B01D1FFF7EA
S1132FC0F5FE4FF000037B607B68184607F10807A5
S1132FD0BD4680BD80B582B000AFFFF7D7FE034683
S1132FE0002B03D06FF018037B6009E0FFF712FF9A
S1132FF00346002B01D0FFF7FBFE4FF000037B607C
S11330007B68184607F10807BD4680BD80B582B0CD
S113301000AFFFF7BBFE0346002B04D1FFF7FAFE17
S11330200346002B03D06FF018037B6014E0FFF716
S1133030BDFE4EF27423C1F6FF734FF001021A6015
S11330404EF26C23C1F6FF734FF000021A604FF08A
S113305000037B60FFF7CCFE7B68184607F1080786
S1133060BD4680BD80B582B000AFFFF78FFE03463A
S1133070002B04D1FFF7CEFE0346002B03D06FF0E4
S113308018037B6029E0FFF791FE4EF27423C1F62A
S1133090FF734FF000021A604EF27C23C1F6FF73F7
S11330A01B68002B14D04EF26C23C1F6FF734FF053
S11330B001021A604EF27823C1F6FF731A684EF2C9
S11330C0E413C1F6FF731B689A4201D0FEF760FB5C
S11330D04FF000037B60FFF78BFE7B68184607F117
S11330E00807BD4680BD00BF80B582B000AFFFF7C2
S11330F04DFE0346002B0CBF002301237B607B683D
S1133100184607F10807BD4680BD00BF80B582B0F0
S113311000AFFFF77FFE0346002B0CBF0023012303
S11331207B607B68184607F10807BD4680BD00BF79
S113313080B483B000AF4EF27423C1F6FF731B68F2
S11331407B607B68184607F10C07BD4680BC70475E
S113315080B582B000AFFFF719FE0346002B0BD1F8
S1133160FFF758FE0346002B06D14EF26C23C1F63E
S1133170FF731B68002B02D14FF0010301E04FF0F5
S113318000037B607B68184607F10807BD4680BDD5
S113319080B400AFBD4680BC704700BF80B58CB022
S11331A000AFF860B9607A603B60BB683B617B68E4
S11331B0BB613B68FB61BB6B3B6207F11003F868C2
S11331C0194603F097FF07F13007BD4680BD00BFE5
S11331D080B483B000AF78607B6883F3118807F113
S11331E00C07BD4680BC704780B483B000AFEFF3DA
S11331F011837B607B68184607F10C07BD4680BCD1
S1133200704700BF80B582B000AFFFF7EDFF034603
S11332107B607B68202B02D87B68002B03D14FF0A6
S11332202000FFF7D5FF4EF2DC13C1F6FF737A6876
S11332301A604EF2E013C1F6FF734FF001021A60F8
S113324007F10807BD4680BD80B500AF4EF2E0131C
S1133250C1F6FF734FF000021A604EF2DC13C1F6A0
S1133260FF731B681846FFF7B3FF80BD80B400AF3F
S11332704EF2E013C1F6FF731B681846BD4680BCCE
S1133280704700BF80B584B000AF78607B68DBB264
S113329003F10803DBB24FEA4313FB737B68002B93
S11332A002D14FF00003FB734EF2E013C1F6FF733B
S11332B01B68002B04D1FB7B1846FFF789FF14E041
S11332C0FA7B4EF2DC13C1F6FF731A60FB7B1F2BF3
S11332D007D8FB7B002B04D0FB7B1846FFF778FF55
S11332E003E04FF02000FFF773FF07F11007BD461E
S11332F080BD00BF80B483B000AF78607B687A681B
S11333001A607B681A687B685A6007F10C07BD462F
S113331080BC704780B483B000AF786039607B684C
S11333205A683B685A603B687A681A607B685B68D5
S11333303A681A607B683A685A6007F10C07BD4620
S113334080BC704780B483B000AF78607B685B68F2
S11333507A6812681A607B681B687A6852685A60D7
S113336007F10C07BD4680BC704700BF80B586B02E
S113337002AF78607B681A687B689A4213D14CF27A
S11333805C03C0F200034CF27402C0F2000200922B
S11333904FF000004FF002011A464FF08603FFF78A
S11333A0FDFEFFF7F5FE7B681B68FB60FB681A688F
S11333B07B681A60FB681B687A685A60FB68184669
S11333C007F11007BD4680BD80B584B002AF7860B8
S11333D07B681A687B689A421BD17B685A687B6851
S11333E09A4213D04CF25C03C0F200034CF29002F8
S11333F0C0F2000200924FF000004FF002011A46A2
S11334004FF09603FFF7CAFEFFF7C2FE4FF0010329
S113341001E04FF00003184607F10807BD4680BDE0
S113342080B584B000AF786039603B685B7BFB603B
S11334307B681B68BB6008E0BB685B7B1A46FB6863
S11334409A4207D8BB681B68BB60BA687B689A421B
S1133450F2D100E000BF3B68B8681946FFF75AFF95
S113346007F11007BD4680BD80B582B000AF78601B
S113347039607B689B681B6803F00103DBB2002B97
S113348008D03B681846FFF75DFF7B68184639682B
S1133490FFF7C6FF07F10807BD4680BD80B584B0BD
S11334A000AF4EF2E413C1F6FF734FF000021A604E
S11334B04EF2E413C1F6FF731A684EF27823C1F694
S11334C0FF731A604EF2E813C1F6FF734FF0000267
S11334D01A604EF27C23C1F6FF734FF001021A60AA
S11334E04EF27423C1F6FF734FF000021A604EF2DD
S11334F06C23C1F6FF734FF001021A604FF0000312
S11335007B600EE07B684FEAC3024EF2EC13C1F617
S1133510FF7313441846FFF7EDFE7B6803F10103C4
S11335207B607B680F2BEDD94EF27023C1F6FF73DD
S11335304FF000021A804FF000037B6032E07A689B
S11335404BF23043C0F2000353F8223003F1FF334F
S1133550BB60BB684FEA43124EF23013C1F6FF73EF
S11335601344FB60BB684FEA43124BF29033C0F242
S113357000031A44FB689A60FA68937B6FF30003B4
S11335809373F86800F06CF9FB689B681B6803F0A0
S11335900203002B02D0F86800F084F97B6803F181
S11335A001037B604BF28C33C0F200031B681A46A4
S11335B07B689A42C3D807F11007BD4680BD00BF9F
S11335C080B586B002AF0346FB804FF00003FB607A
S11335D0FB88002B13D14CF2BC03C0F200034CF265
S11335E0D002C0F2000200924FF000004FF002013E
S11335F01A464FF0AB03FFF7D1FDFFF7C9FDFB8877
S113360003F0FF03002B07D1FB884FEA1323FB8051
S1133610FB6803F10803FB60FB8803F00F03002B36
S113362007D1FB884FEA1313FB80FB6803F1040303
S1133630FB60FB8803F00F0303F1FF324CF2AC0391
S1133640C0F200039B5C1A46FB681344184607F15A
S11336501007BD4680BD00BF80B400AF4EF270239A
S1133660C1F6FF731B88002B14BF002301231846E7
S1133670BD4680BC704700BF80B500AF4EF27023DA
S1133680C1F6FF731B881846FFF79AFF03461846D6
S113369080BD00BF80B483B000AF78607B684FF01A
S11336A0010202FA03F39AB24EF27023C1F6FF73D9
S11336B01B8842EA03039AB24EF27023C1F6FF73E9
S11336C01A8007F10C07BD4680BC704780B483B0F4
S11336D000AF78607B684FF0010202FA03F39BB2FB
S11336E06FEA03039AB24EF27023C1F6FF731B888C
S11336F002EA03039AB24EF27023C1F6FF731A80F2
S113370007F10C07BD4680BC704700BF80B582B08E
S113371000AFFFF7B1FF03467B607A684EF2EC130B
S1133720C1F6FF7353F83230184607F10807BD4657
S113373080BD00BF80B584B000AF78607B685B7BE0
S1133740FB60FB684FEAC3024EF2EC13C1F6FF7351
S11337501A447B6810461946FFF7DCFDF868FFF74A
S113376099FF4EF2E413C1F6FF731B68002B09D0D6
S11337704EF2E413C1F6FF731B685B7B1A46FB68C9
S11337809A420BD94EF2E413C1F6FF737A681A60B9
S11337904EF26C23C1F6FF731B6801E04FF0000387
S11337A0184607F11007BD4680BD00BF80B584B040
S11337B000AF78607B685B7BBB60BB684FEAC30289
S11337C04EF2EC13C1F6FF731344FB607B6818469A
S11337D0FFF7B8FDF868FFF7F7FD0346002B21D08B
S11337E0B868FFF773FF4EF2E413C1F6FF731A686B
S11337F07B689A422CD1FFF72FFF0346002B04D19C
S1133800FFF784FF03461A4601E04FF000024EF230
S1133810E413C1F6FF731A604EF26C23C1F6FF7312
S11338201B6818E04EF2E413C1F6FF731A687B6854
S11338309A420ED1FB681B681A464EF2E413C1F695
S1133840FF731A604EF26C23C1F6FF731B6802E02B
S113385000BF4FF00003184607F11007BD4680BDB6
S113386080B483B000AF78607B684FF000021A73B5
S11338707B689B68DB68DAB27B685A737A68937BEF
S11338806FF3410393737A68937B6FF382039373AB
S11338907B684FF000021A6107F10C07BD4680BC3B
S11338A0704700BF80B582B000AF78607B689B68CA
S11338B05A697B689B681B691A447B689A6141F664
S11338C0B113C0F200037A68D3617B684FF0010240
S11338D01A737868FFF72EFF0346184607F10807A6
S11338E0BD4680BD80B584B000AF786039607B6828
S11338F05B7BFB603B68DAB27B685A737B681B7B3B
S113390003F00103DBB2002B63D07B681846FFF79A
S113391019FDFB684FEAC3024EF2EC13C1F6FF73C4
S113392013441846FFF750FD0346002B02D0F868F5
S1133930FFF7CCFE3B684FEAC3024EF2EC13C1F62C
S1133940FF731A447B6810461946FFF7E3FC386896
S1133950FFF7A0FE4EF2E413C1F6FF731A687B680A
S11339609A4220D13A68FB689A4240D3FFF7CEFED0
S113397002464EF2E413C1F6FF731A604EF2E413EA
S1133980C1F6FF731A687B689A4209D04EF26C2321
S1133990C1F6FF731B68002B02D04FF0010301E056
S11339A04FF0000328E04EF2E413C1F6FF731B68E6
S11339B05B7B1A463B689A421BD94EF2E413C1F66C
S11339C0FF737A681A604EF26C23C1F6FF731B68AA
S11339D012E07B681B7B03F078031F2B0AD97B68FA
S11339E05B695B6818467968FFF73EFD02E000BF3B
S11339F000E000BF4FF00003184607F11007BD4672
S1133A0080BD00BF80B584B000AF78607B684FEAAA
S1133A10C3024EF2EC13C1F6FF731344BB60B868E3
S1133A20FFF7D2FC0346002B24D1BB681B681A683D
S1133A30BB689A421ED0B868FFF798FC0346FB6047
S1133A40B868F968FFF766FC4EF2E413C1F6FF7339
S1133A501A68FB689A420DD1BB681B681A464EF27D
S1133A60E413C1F6FF731A604EF26C23C1F6FF73C0
S1133A701B6801E04FF00003184607F11007BD462C
S1133A8080BD00BF80B582B000AF4EF27423C1F692
S1133A90FF731B687B604EF27823C1F6FF731A68CC
S1133AA0937B6FF3820393734EF27823C1F6FF7313
S1133AB01B681B693B604EF27823C1F6FF731B68D9
S1133AC04FF000021A61FFF7BFFB4EF27823C1F6F4
S1133AD0FF731B689B68DA694EF27823C1F6FF73A3
S1133AE01B689B685B68386819469047FFF7BEFB04
S1133AF00346002B01D1FFF785FB4EF27C23C1F670
S1133B00FF731B68002B0AD14FF00000FFF7BAFBCC
S1133B104EF27C23C1F6FF734FF001021A604EF29D
S1133B207423C1F6FF737A681A604EF27423C1F6E7
S1133B30FF731B68002B14BF002201224EF26C237A
S1133B40C1F6FF731A604EF27823C1F6FF731A6848
S1133B50937B6FF3820393734EF27823C1F6FF7362
S1133B601A684EF2E413C1F6FF731B689A4208D038
S1133B704EF26C23C1F6FF731B68002B01D0FDF7D6
S1133B8007FE4EF27823C1F6FF731B681B69002BF6
S1133B908AD14EF27823C1F6FF731A68937B43F0FF
S1133BA00403937307F10807BD4680BD80B483B056
S1133BB000AF78607B6883F3118807F10C07BD467A
S1133BC080BC704780B483B000AFEFF311837B6097
S1133BD07B68184607F10C07BD4680BC704700BFE0
S1133BE080B483B000AFEFF314837B607B68184626
S1133BF007F10C07BD4680BC704700BF80B500AF1D
S1133C00FFF7EEFF034603F00203002B02D04FF050
S1133C10000301E04FF00103184680BD80B582B077
S1133C2000AFFFF7CFFF03467B607B68202B02D8F1
S1133C307B68002B03D14FF02000FFF7B7FF4EF253
S1133C40DC13C1F6FF737A681A604EF2E013C1F612
S1133C50FF734FF001021A6007F10807BD4680BDEB
S1133C6080B500AF4EF2E013C1F6FF734FF00002CF
S1133C701A604EF2DC13C1F6FF731B681846FFF797
S1133C8095FF80BD80B400AF4EF2E013C1F6FF7320
S1133C901B681846BD4680BC704700BF80B584B021
S1133CA000AF78603960FFF7A9FF0346002B04D109
S1133CB0FFF7E8FF0346002B03D06FF01803FB6007
S1133CC063E07B68002B07DD4BF28C33C0F200030A
S1133CD01B687A689A4206DD7B68002B03D06FF07C
S1133CE01103FB6051E03B68002B03D16FF010031C
S1133CF0FB604AE07B68002B0BD07B6803F1FF3349
S1133D004FEA43131A464EF23013C1F6FF731344BD
S1133D1004E04EF27823C1F6FF731B68BB60FFF723
S1133D207DFFBB681B7B002B04D0BB689B68DB69F1
S1133D30002B03D16FF02803FB6024E0BB681A69F1
S1133D403B6842EA0302BB681A614EF27823C1F66B
S1133D50FF731B68BA689A4212D14EF27823C1F6F7
S1133D60FF731B689B7B03F00403002B08D04EF207
S1133D707C23C1F6FF731B68002B01D0FFF782FE82
S1133D804FF00003FB60FFF76BFFFB68184607F179
S1133D901007BD4680BD00BF80B584B000AF786019
S1133DA03960FFF72BFF0346002B04D0FFF76AFFAF
S1133DB00346002B03D06FF01803FB605CE07B68C4
S1133DC0002B07DD4BF28C33C0F200031B687A68CA
S1133DD09A4203DD6FF01103FB604DE03B68002B5A
S1133DE003D16FF01003FB6046E07B6803F1FF33FF
S1133DF04FEA43131A464EF23013C1F6FF731344CD
S1133E00BB60FFF70BFFBB681B7B002B04D0BB68B8
S1133E109B68DB69002B03D16FF02803FB6029E06A
S1133E20BB681A693B6842EA0302BB681A614EF236
S1133E307823C1F6FF731B68BA689A4217D14EF211
S1133E407823C1F6FF731B689B7B03F00403002BEC
S1133E500DD04EF27C23C1F6FF731B68002B06D0F5
S1133E604EF2E813C1F6FF734FF001021A604FF0EF
S1133E700003FB60FFF7F4FEFB68184607F1100728
S1133E80BD4680BD80B582B000AFFFF7B7FE0346E4
S1133E90002B04D1FFF7F6FE0346002B03D06FF08E
S1133EA018037B601CE0FFF7B9FE4EF27823C1F6DD
S1133EB0FF731B689B68DB69002B03D16FF0280339
S1133EC07B600BE04EF27823C1F6FF731A68937B94
S1133ED06FF3820393734FF000037B60FFF7C0FE20
S1133EE07B68184607F10807BD4680BD80B582B0DF
S1133EF000AFFFF783FE0346002B04D1FFF7C2FE99
S1133F000346002B03D06FF018037B602DE0FFF70E
S1133F1085FE4EF27823C1F6FF731B689B68DB694C
S1133F20002B03D16FF028037B601CE04EF2782352
S1133F30C1F6FF731A68937B43F0040393734EF244
S1133F407823C1F6FF731B681B69002B08D04EF25F
S1133F507C23C1F6FF731B68002B01D0FFF792FD91
S1133F604FF000037B60FFF77BFE7B68184607F188
S1133F700807BD4680BD00BF80B483B000AF4EF2D9
S1133F807823C1F6FF731B68002B09D04EF2782307
S1133F90C1F6FF731B689B7B03F00403002B02D163
S1133FA04FF0010301E04FF000037B607B6818468B
S1133FB007F10C07BD4680BC704700BF80B483B0D6
S1133FC000AF78607B6883F3118807F10C07BD4666
S1133FD080BC704780B483B000AFEFF311837B6083
S1133FE07B68184607F10C07BD4680BC704700BFCC
S1133FF080B483B000AFEFF314837B607B68184612
S113400007F10C07BD4680BC704700BF80B500AF08
S1134010FFF7EEFF034603F00203002B02D04FF03C
S1134020000301E04FF00103184680BD80B582B063
S113403000AFFFF7CFFF03467B607B68202B02D8DD
S11340407B68002B03D14FF02000FFF7B7FF4EF23F
S1134050DC13C1F6FF737A681A604EF2E013C1F6FE
S1134060FF734FF001021A6007F10807BD4680BDD7
S113407080B500AF4EF2E013C1F6FF734FF00002BB
S11340801A604EF2DC13C1F6FF731B681846FFF783
S113409095FF80BD80B400AF4EF2E013C1F6FF730C
S11340A01B681846BD4680BC704700BF80B584B00D
S11340B000AF78607B68DBB203F10803DBB24FEA40
S11340C04313FB737B68002B02D14FF00003FB7397
S11340D04EF2E013C1F6FF731B68002B04D1FB7B87
S11340E01846FFF76BFF14E0FA7B4EF2DC13C1F6BF
S11340F0FF731A60FB7B1F2B07D8FB7B002B04D0BC
S1134100FB7B1846FFF75AFF03E04FF02000FFF750
S113411055FF07F11007BD4680BD00BF80B483B0D2
S113412000AF78607B685B687A6812681A607B68A5
S11341301B687A6852685A6007F10C07BD4680BC58
S1134140704700BF80B582B000AF7860786801F036
S11341505BF807F10807BD4680BD00BF80B582B09B
S113416000AF78607B681B7B03F078030F2B03D9C7
S11341707B681846FFF7D2FF07F10807BD4680BDEC
S113418080B582B000AF78607B685B691B68002BE8
S113419005D07B685B691B681846FFF7D3FF07F1FE
S11341A00807BD4680BD00BF80B584B000AF78600D
S11341B0FFF72CFF0346002B04D1FFF76BFF0346E8
S11341C0002B03D06FF01803FB604CE07B68002BDE
S11341D007DD4BF28C33C0F200031B687A689A4205
S11341E006DD7B68002B03D06FF01103FB603AE01F
S11341F07B68002B0BD07B6803F1FF334FEA43133A
S11342001A464EF23013C1F6FF73134404E04EF223
S11342107823C1F6FF731B68BB60FFF707FFBB6819
S11342201B7B002B0BD1B868FFF73CFB0346002B2C
S113423001D0FDF7ADFA4FF00003FB6011E0BB685D
S11342409B7B03F00103002B08D1BA68937B43F0F6
S1134250010393734FF00003FB6002E06FF02A0345
S1134260FB60FFF705FFFB68184607F11007BD4622
S113427080BD00BF80B584B000AF7860FFF7C6FE94
S11342800346002B04D1FFF705FF0346002B03D0A0
S11342906FF01803FB6038E07B68002B07DD4BF2FE
S11342A08C33C0F200031B687A689A4206DD7B688F
S11342B0002B03D06FF01103FB6026E07B68002B1A
S11342C00BD07B6803F1FF334FEA43131A464EF2D7
S11342D03013C1F6FF73134404E04EF27823C1F6A1
S11342E0FF731B68BB60FFF7A1FEBB689B7B03F0F9
S11342F00103002B0CBF00230123FB60BA68937BEE
S11343006FF300039373FFF7B3FEFB68184607F1DE
S11343101007BD4680BD00BF80B582B000AFFFF777
S113432075FE0346002B08D06FF018037B607B6892
S1134330184607F10807BD4680BDFFF7ABFE0346EC
S1134340002B01D1FFF772FE4EF27423C1F6FF7306
S11343501B68002B06D04EF27423C1F6FF734FF096
S113436000021A604EF27C23C1F6FF731B68002B17
S11343700AD14FF00000FFF799FE4EF27C23C1F6FC
S1134380FF734FF001021A604EF26C23C1F6FF7303
S11343904FF001021A604EF27823C1F6FF731B68D6
S11343A01846FFF703FA4EF27823C1F6FF731B6831
S11343B01846FFF755FA4EF27823C1F6FF731B68CF
S11343C09B7B03F00103002B10D04EF27823C1F63F
S11343D0FF731A68937B6FF3000393734EF2782391
S11343E0C1F6FF731B681846FFF75CFAFDF7ACFAD9
S11343F080B584B000AF7860FFF708FE0346002B59
S113440004D1FFF747FE0346002B03D06FF01803D7
S1134410FB6062E07B68002B07DD4BF28C33C0F25B
S113442000031B687A689A4203DD6FF01103FB6096
S113443053E07B6803F1FF334FEA43131A464EF20D
S11344403013C1F6FF731344BB604EF27823C1F6F8
S1134450FF731B68BA689A4203D16FF01B03FB60B9
S11344603BE0FFF7E3FDBB681B7B002B03D16FF040
S11344702803FB602FE0BB681B7B03F00103DBB266
S1134480002B03D0B868FFF791F90BE0BB681B7BE6
S113449003F00203002B05D0B868FFF75FFEB8688D
S11344A0FFF76EFEB868FFF7DBF9BB689B7B03F090
S11344B00103002B0CD0BA68937B6FF30003937352
S11344C0B868FFF7EFF90346002B01D0FDF760F958
S11344D04FF00003FB60FFF7CBFDFB68184607F1C4
S11344E01007BD4680BD00BF80B586B000AF7860C0
S11344F03960FFF78BFD0346002B04D1FFF7CAFD9B
S11345000346002B03D06FF018037B6156E07B68F1
S1134510002B07DD4BF28C33C0F200031B687A6872
S11345209A4206DD7B68002B03D06FF011037B6198
S113453044E03B68002B02DD3B68102B06DD3B6842
S1134540002B03D06FF010037B6137E07B68002BF6
S11345500BD07B6803F1FF334FEA43131A464EF244
S11345603013C1F6FF73134404E04EF27823C1F60E
S1134570FF731B68FB603B68002B03D1FB689B68DF
S1134580DB6802E03B6803F1FF333B61FFF74EFD5C
S1134590FB681B7B002B03D16FF028037B610BE0CE
S11345A0F8683969FFF79EF90346002B01D0FDF73F
S11345B0EFF84FF000037B61FFF75AFD7B69184663
S11345C007F11807BD4680BD80B584B000AF7860A0
S11345D03960FFF71BFD0346002B04D1FFF75AFD9A
S11345E00346002B03D06FF01803FB603BE07B68AD
S11345F0002B07DD4BF28C33C0F200031B687A6892
S11346009A4206DD7B68002B03D06FF01103FB6038
S113461029E07B68002B0BD07B6803F1FF334FEA62
S113462043131A464EF23013C1F6FF73134404E0E9
S11346304EF27823C1F6FF731B68BB60FFF7F6FCEC
S1134640BB681B7B002B03D16FF02803FB6008E0E1
S1134650BB685B7B03F101023B681A604FF0000307
S1134660FB60FFF705FDFB68184607F11007BD4620
S113467080BD00BF80B400AFBD4680BC704700BFA2
S113468080B58CB000AFF860B9607A603B60BB68FD
S11346903B617B68BB613B68FB61BB6B3B6207F1C1
S11346A01003F868194602F025FD07F13007BD46EE
S11346B080BD00BF80B483B000AF78607B6883F3B3
S11346C0118807F10C07BD4680BC704780B483B0E5
S11346D000AFEFF311837B607B68184607F10C078A
S11346E0BD4680BC704700BF80B483B000AFEFF319
S11346F014837B607B68184607F10C07BD4680BCB9
S1134700704700BF80B500AFFFF7EEFF034603F02C
S11347100203002B02D04FF0000301E04FF001032D
S1134720184680BD80B582B000AFFFF7CFFF0346C7
S11347307B607B68202B02D87B68002B03D14FF071
S11347402000FFF7B7FF4EF2DC13C1F6FF737A685F
S11347501A604EF2E013C1F6FF734FF001021A60C3
S113476007F10807BD4680BD80B500AF4EF2E013E7
S1134770C1F6FF734FF000021A604EF2DC13C1F66B
S1134780FF731B681846FFF795FF80BD80B400AF28
S11347904EF2E013C1F6FF731B681846BD4680BC99
S11347A0704700BF80B586B002AFF860B9607A6028
S11347B03B60BB68002B13DA4CF2E003C0F2000349
S11347C04CF2FC02C0F2000200924FF000004FF0E5
S11347D002011A464FF0A003FFF752FFFFF74AFF0A
S11347E0FB687A685A60FB683A689A604EF28823DC
S11347F0C1F6FF731A68BB681344F868194600F0E1
S1134800C9FC07F11007BD4680BD00BF80B582B06A
S113481000AF78604EF27823C1F6FF731B68184628
S1134820FEF7C4FF4EF27823C1F6FF731B687A6863
S11348305A617B684FF000021A6007F10807BD4611
S113484080BD00BF80B582B000AFFFF75BFF0346B9
S1134850002B0BD1FFF79AFF0346002B06D14EF233
S11348606C23C1F6FF731B68002B03D16FF0180390
S11348707B602AE0FFF756FF4EF27823C1F6FF7300
S11348801B689B7B03F00203002B0CD04EF27823B1
S1134890C1F6FF731A68937B6FF3410393734FF070
S11348A000037B600FE04EF27823C1F6FF731B68B0
S11348B04FF00A021A733B461846FFF7A7FFFCF7AE
S11348C067FF3B687B60FFF74FFF7B68184607F183
S11348D00807BD4680BD00BF80B588B000AF7860D2
S11348E0FFF710FF0346002B0BD1FFF74FFF0346E2
S11348F0002B06D14EF26C23C1F6FF731B68002B0C
S113490003D16FF01803FB613EE07B68B3F1FF3F16
S113491003DA6FF01003FB6136E0FFF703FF4EF29A
S11349207823C1F6FF731B689B7B03F00203002B03
S11349300CD04EF27823C1F6FF731A68937B6FF3A1
S1134940410393734FF00003FB611BE07B68002B72
S113495003D16FF03103FB6114E04EF27823C1F60A
S1134960FF731B684FF00A021A7307F1180207F16C
S11349700C03104619467A6801F08EF8FCF708FF1C
S1134980BB69FB61FFF7F0FEFB69184607F12007DE
S1134990BD4680BD80B584B000AF7860FFF7B2FE3D
S11349A00346002B04D1FFF7F1FE0346002B03D08E
S11349B06FF01803FB6056E07B68002B07DD4BF2B9
S11349C08C33C0F200031B687A689A4206DD7B6868
S11349D0002B03D06FF01103FB6044E07B68002BD5
S11349E00BD07B6803F1FF334FEA43131A464EF2B0
S11349F03013C1F6FF73134404E04EF27823C1F67A
S1134A00FF731B68BB60FFF78DFEBB681B7B002B2D
S1134A1003D16FF02803FB6023E0BB681B7B03F02A
S1134A207803082B0BD1B86801F082F80346002BF9
S1134A3001D0FCF7ADFE4FF00003FB6011E0BB6852
S1134A409B7B03F00203002B08D1BA68937B43F0ED
S1134A50020393734FF00003FB6002E06FF02A033C
S1134A60FB60FFF781FEFB68184607F11007BD469F
S1134A7080BD00BF80B584B000AF7860FFF742FE10
S1134A800346002B04D1FFF781FE0346002B03D01D
S1134A906FF01803FB6040E07B68002B07DD4BF2EE
S1134AA08C33C0F200031B687A689A4206DD7B6887
S1134AB0002B03D06FF01103FB602EE07B68002B0A
S1134AC00BD07B6803F1FF334FEA43131A464EF2CF
S1134AD03013C1F6FF73134404E04EF27823C1F699
S1134AE0FF731B68BB60FFF71DFEBB681B7B002BBD
S1134AF003D16FF02803FB600DE0BB689B7B03F0E0
S1134B000203002B0CBF00230123FB60BA68937BD4
S1134B106FF341039373FFF727FEFB68184607F111
S1134B201007BD4680BD00BF80B584B000AF78607B
S1134B30FFF7E8FD0346002B04D1FFF727FE0346E9
S1134B40002B03D06FF01803FB6033E07B68002B6D
S1134B5007DD4BF28C33C0F200031B687A689A427B
S1134B6003DD6FF01103FB6024E07B6803F1FF3386
S1134B704FEA43131A464EF23013C1F6FF7313443F
S1134B80BB60FFF7CFFDBB681B7B03F00203002B68
S1134B9003D16FF02803FB600AE0B86801F01EF847
S1134BA00346002B01D0FCF7F3FD4FF00003FB603C
S1134BB0FFF7DAFDFB68184607F11007BD4680BD14
S1134BC080B584B000AF7860FFF79CFD0346002BEE
S1134BD004D1FFF7DBFD0346002B03D06FF018036D
S1134BE0FB6070E07B68002B07DD4BF28C33C0F276
S1134BF000031B687A689A4206DD7B68002B03D0A9
S1134C006FF01103FB605EE07B68002B0BD07B68C8
S1134C1003F1FF334FEA43131A464EF23013C1F641
S1134C20FF73134404E04EF27823C1F6FF731B684C
S1134C30BB60FFF777FD4EF27823C1F6FF731B6864
S1134C40BA689A420AD14EF26C23C1F6FF731B680C
S1134C50002B03D16FF01803FB6032E0BB681B7BB1
S1134C60002B03D16FF02803FB602AE0BB681B7B99
S1134C7003F00103DBB2002B0FD0BB684FF004023A
S1134C801A73B868FEF792FD0346002B01D0FCF7B7
S1134C907FFD4FF00003FB6013E0BB681B7B03F058
S1134CA00403002B03D06FF02A03FB6009E0BB6808
S1134CB01B7B43F00403DAB2BB681A734FF00003A2
S1134CC0FB60FFF751FDFB68184607F11007BD466E
S1134CD080BD00BF80B584B000AF7860FFF712FDDF
S1134CE00346002B04D1FFF751FD0346002B03D0EC
S1134CF06FF01803FB6047E07B68002B07DD4BF285
S1134D008C33C0F200031B687A689A4203DD6FF0AB
S1134D101103FB6038E07B6803F1FF334FEA431370
S1134D201A464EF23013C1F6FF731344BB60FFF70B
S1134D30F9FCBB681B7B03F00403002B03D16FF069
S1134D402803FB601EE0BB681B7B03F00203002BFF
S1134D500FD1BB684FF001021A73B868FEF7EAFC82
S1134D600346002B01D0FCF713FD4FF00003FB605A
S1134D7008E0BB681B7B03F0FB03BA6813734FF0B6
S1134D800003FB60FFF7F0FCFB68184607F110070F
S1134D90BD4680BD80B588B000AF7860FFF7B2FC37
S1134DA00346002B0BD1FFF7F1FC0346002B06D181
S1134DB04EF26C23C1F6FF731B68002B03D16FF016
S1134DC01803FB613BE07B68002B03DA6FF01003F0
S1134DD0FB6134E0FFF7A6FC4EF27823C1F6FF73C3
S1134DE01B684FF002021A734EF27823C1F6FF7368
S1134DF01B681846FEF7DAFC4EF27823C1F6FF73FF
S1134E001B6807F118025A6107F10C03BB6145F6F0
S1134E10A133C0F200034EF27822C1F6FF72D2F839
S1134E2000C007F10C02104679681A466346FFF782
S1134E30B9FCFCF7ADFCBB69FB61FFF795FCFB69B2
S1134E40184607F12007BD4680BD00BF80B400AFFF
S1134E50BD4680BC704700BF80B58CB000AFF86021
S1134E60B9607A603B60BB683B617B68BB613B684F
S1134E70FB61BB6B3B6207F11003F868194602F053
S1134E8039F907F13007BD4680BD00BF80B483B057
S1134E9000AF78607B6883F3118807F10C07BD4687
S1134EA080BC704780B483B000AFEFF311837B60A4
S1134EB07B68184607F10C07BD4680BC704700BFED
S1134EC080B483B000AFEFF314837B607B68184633
S1134ED007F10C07BD4680BC704700BF80B500AF2A
S1134EE0FFF7EEFF034603F00203002B02D04FF05E
S1134EF0000301E04FF00103184680BD80B582B085
S1134F0000AFFFF7CFFF03467B607B68202B02D8FE
S1134F107B68002B03D14FF02000FFF7B7FF4EF260
S1134F20DC13C1F6FF737A681A604EF2E013C1F61F
S1134F30FF734FF001021A6007F10807BD4680BDF8
S1134F4080B500AF4EF2E013C1F6FF734FF00002DC
S1134F501A604EF2DC13C1F6FF731B681846FFF7A4
S1134F6095FF80BD80B400AF4EF2E013C1F6FF732D
S1134F701B681846BD4680BC704700BF80B400AFB4
S1134F804EF28023C1F6FF734FF000021A604EF216
S1134F908023C1F6FF731A684EF28423C1F6FF73AF
S1134FA01A604EF28423C1F6FF731B6803F10102F9
S1134FB04EF28823C1F6FF731A604EF28C23C1F6B9
S1134FC0FF734FF000021A60BD4680BC704700BFFB
S1134FD080B485B000AF7860396044E07B684FEA04
S1134FE05303FB60FB6803F1FF324EF2E403C1F6A6
S1134FF0FF7353F832204EF28023C1F6FF731B680F
S1135000C3EB02024EF28023C1F6FF731B683968BA
S1135010C3EB01039A422AD97B6803F1FF33FA6890
S113502002F1FF304EF2E402C1F6FF724EF2E401E7
S1135030C1F6FF714FEAC30313444FEAC0020A44A6
S113504092E8030083E803007B6803F1FF334EF228
S1135050E402C1F6FF724FEAC30313445B687A6843
S11350601A60FB687B607B68012BB7D800E000BF47
S11350707B68184607F11407BD4680BC704700BF23
S113508080B485B000AF786039606EE0FB6803F1EE
S113509001024EF28C23C1F6FF731B689A4223D897
S11350A0FA684EF2E403C1F6FF7353F832204EF26D
S11350B08023C1F6FF731B68C3EB0202FB6803F194
S11350C0FF314EF2E403C1F6FF7353F831104EF290
S11350D08023C1F6FF731B68C3EB01039A4203D21A
S11350E0FB6803F10103FB604EF28023C1F6FF73FA
S11350F01B683A68C3EB0202FB6803F1FF314EF20E
S1135100E403C1F6FF7353F831104EF28023C1F665
S1135110FF731B68C3EB01039A4233D97B6803F125
S1135120FF33FA6802F1FF304EF2E402C1F6FF7277
S11351304EF2E401C1F6FF714FEAC30313444FEA90
S1135140C0020A4492E8030083E803007B6803F189
S1135150FF334EF2E402C1F6FF724FEAC303134475
S11351605B687A681A60FB687B607B684FEA43037C
S1135170FB604EF28C23C1F6FF731B68FA689A42F7
S113518084D900E000BF7B68184607F11407BD46C8
S113519080BC704780B584B000AF786039604EF24F
S11351A08C23C1F6FF731B6803F101024EF28C23BA
S11351B0C1F6FF731A604EF28C23C1F6FF731B68AD
S11351C018463968FFF704FF0346FB60FB6803F1E8
S11351D0FF324EF2E403C1F6FF73396843F832102C
S11351E0FB6803F1FF334EF2E402C1F6FF724FEAAB
S11351F0C30313447A685A607B68FA681A6007F13B
S11352001007BD4680BD00BF80B586B000AF786092
S11352107B681B68FB604EF28C23C1F6FF731B682E
S113522003F1FF324EF2E403C1F6FF7353F8323058
S11352307B614EF28C23C1F6FF731B6803F1FF32CE
S11352404EF28C23C1F6FF731A604EF28C23C1F622
S1135250FF731B68002B7AD0FB68012B49D94EF2EF
S11352608023C1F6FF731B687A69C3EB0202FB68F3
S11352704FEA53033B613B6903F1FF314EF2E40310
S1135280C1F6FF7353F831104EF28023C1F6FF7359
S11352901B68C3EB01039A422BD2FB6803F1FF3373
S11352A03A6902F1FF304EF2E402C1F6FF724EF2A7
S11352B0E401C1F6FF714FEAC30313444FEAC0028D
S11352C00A4492E8030083E80300FB6803F1FF3318
S11352D04EF2E402C1F6FF724FEAC30313445B6863
S11352E0FA681A6038697969FFF772FE0346FB6051
S11352F005E0F8687969FFF7C3FE0346FB60FB68C5
S113530003F1FF3C4EF28C23C1F6FF7318684EF292
S1135310E402C1F6FF724EF2E401C1F6FF714FEAF6
S1135320CC0313444FEAC0020A4492E8030083E822
S11353300300FB6803F1FF334EF2E402C1F6FF728F
S11353404FEAC30313445B68FA681A6000E000BFC5
S113535007F11807BD4680BD80B582B000AF4EF29C
S11353608C23C1F6FF731B6803F1FF324EF2E40392
S1135370C1F6FF7353F832307B604EF28C23C1F6D2
S1135380FF731B6803F1FF324EF28C23C1F6FF73E7
S11353901A604EF28C23C1F6FF731B68002B2ED0CB
S11353A04FF001007968FFF76BFE03463B603B68F2
S11353B003F1FF3C4EF28C23C1F6FF7318684EF2E2
S11353C0E402C1F6FF724EF2E401C1F6FF714FEA46
S11353D0CC0313444FEAC0020A4492E8030083E872
S11353E003003B6803F1FF334EF2E402C1F6FF729F
S11353F04FEAC30313445B683A681A6000E000BFD5
S113540007F10807BD4680BD80B584B002AFFFF741
S113541065FD0346002B13D14CF21013C0F20003B8
S11354204CF22C12C0F2000200924FF000004FF038
S113543002011A464FF4B273FFF70EFDFFF706FDA3
S1135440FFF790FD0346002B13D04CF21013C0F26B
S113545000034CF23C12C0F2000200924FF0000034
S11354604FF002011A4640F26513FFF7F5FCFFF70F
S1135470EDFCFFF743FD4EF28823C1F6FF731A6873
S11354804EF28423C1F6FF731A604EF28423C1F6F0
S1135490FF731B6803F101024EF28823C1F6FF7308
S11354A01A600DE04EF2E403C1F6FF735B687B60A3
S11354B0FFF752FF7B685B687A68926810469847EA
S11354C04EF28C23C1F6FF731B68002B19D04EF2E9
S11354D0E403C1F6FF731A684EF28023C1F6FF732A
S11354E01B68C3EB02024EF28423C1F6FF731968F2
S11354F04EF28023C1F6FF731B68C3EB01039A428B
S1135500D0D94EF28423C1F6FF731A684EF2802379
S1135510C1F6FF731A60FFF713FD07F10807BD46D4
S113552080BD00BF80B483B000AFEFF313837B6012
S113553071B67B68012B02D14FF0010301E04FF0FB
S11355400003184607F10C07BD4680BC704700BF36
S113555080B483B000AF78607B68002B00D161B663
S113556007F10C07BD4680BC704700BF80B485B00E
S113557000AF78607B681B68FB60FB68184607F126
S11355801407BD4680BC704780B483B000AF786018
S11355907B6883F3118807F10C07BD4680BC704714
S11355A080B483B000AFEFF311837B607B6818464F
S11355B007F10C07BD4680BC704700BF80B483B0C0
S11355C000AFEFF314837B607B68184607F10C0788
S11355D0BD4680BC704700BF80B500AFFFF7EEFF4B
S11355E0034603F00203002B02D04FF0000301E056
S11355F04FF00103184680BD80B582B000AFFFF7BD
S1135600CFFF03467B607B68202B02D87B68002B8E
S113561003D14FF02000FFF7B7FF4EF2DC13C1F6C1
S1135620FF737A681A604EF2E013C1F6FF734FF00D
S113563001021A6007F10807BD4680BD80B500AFBE
S11356404EF2E013C1F6FF734FF000021A604EF2FF
S1135650DC13C1F6FF731B681846FFF795FF80BD86
S113566080B400AF4EF2E013C1F6FF731B68184616
S1135670BD4680BC704700BF80B584B000AF786081
S1135680FFF7AAFF0346002B04D1FFF7E9FF034607
S1135690002B03D06FF01803FB600DE0FFF7ACFFA5
S11356A04EF28423C1F6FF731A687B681A604FF0C8
S11356B00003FB60FFF7C2FFFB68184607F1100701
S11356C0BD4680BD80B500AF4EF21800CEF200009A
S11356D0FFF74CFF0346C3F5BA4303F1C003184672
S11356E080BD00BF80B500AF4EF21000CEF20000C6
S11356F0FFF73CFF034603F48033002B0CBF002369
S11357000123184680BD00BF80B588B000AF786023
S1135710FFF708FF0346FB614EF28823C1F6FF73CF
S11357201B68FB60FFF7CEFF03463B61FFF7DAFF20
S11357300346BB61FFF7C6FF03467B61F869FFF7C9
S113574007FFFB684FF47A7202FB03F3BB60BB698B
S1135750002B03D03A697B699A4203D9BB68A3F54D
S11357607A73BB603B694FF47A7202FB03F249F629
S11357708173C1F25E63A3FB02134FEA535244F6F2
S1135780D353C1F26203A3FB02134FEA9313BA6823
S11357901344BB607B68BA681A604FF00003184674
S11357A007F12007BD4680BD80B400AFBD4680BC74
S11357B0704700BF80B58CB000AFF860B9607A6004
S11357C03B60BB683B617B68BB613B68FB61BB6B57
S11357D03B6207F11003F868194601F08BFC07F1EE
S11357E03007BD4680BD00BF80B483B000AF786091
S11357F07B6883F3118807F10C07BD4680BC7047B2
S113580080B483B000AFEFF311837B607B681846EC
S113581007F10C07BD4680BC704700BF80B582B05D
S113582000AFFFF7EDFF03467B607B68202B02D8B7
S11358307B68002B03D14FF02000FFF7D5FF4EF219
S1135840DC13C1F6FF737A681A604EF2E013C1F6F6
S1135850FF734FF001021A6007F10807BD4680BDCF
S113586080B500AF4EF2E013C1F6FF734FF00002B3
S11358701A604EF2DC13C1F6FF731B681846FFF77B
S1135880B3FF80BD80B483B000AF786039607B68BB
S11358905A683B685A603B687A681A607B685B6840
S11358A03A681A607B683A685A6007F10C07BD468B
S11358B080BC704780B483B000AF78607B685B685D
S11358C07A6812681A607B681B687A6852685A6042
S11358D007F10C07BD4680BC704700BF80B586B099
S11358E002AFF860B9607A603B60BB68002B13DAE2
S11358F04CF29C13C0F200034CF2B812C0F2000246
S113590000924FF000004FF002011A464FF0A0033E
S1135910FFF750FFFFF748FFFB687A685A60FB689F
S11359203A689A604EF28823C1F6FF731A68BB681E
S11359301344F8681946FFF72DFC07F11007BD461C
S113594080BD00BF80B582B000AF78607868FFF793
S11359505BFC07F10807BD4680BD00BF80B584B07D
S113596000AF786039603B685B7BFB607B681B68D9
S1135970BB6008E0BB685B7B1A46FB689A4207D8A9
S1135980BB681B68BB60BA687B689A42F2D100E0CE
S113599000BF3B68B8681946FFF774FF07F11007AA
S11359A0BD4680BD80B582B000AF78604EF27823EA
S11359B0C1F6FF731B681846FDF7F8FE4EF2782314
S11359C0C1F6FF731B687A685A617B684FF0000266
S11359D01A6007F10807BD4680BD00BF80B584B0DA
S11359E002AF78607B681B7B03F00203002B13D1AA
S11359F04CF2CC13C0F200034CF2E412C0F20002E9
S1135A0000924FF000004FF002011A464FF06D0370
S1135A10FFF7D0FEFFF7C8FE7B681B7B03F004038F
S1135A20002B08D17B684FF001021A737868FDF7E8
S1135A3081FE034605E07B684FF004021A734FF0C1
S1135A400003184607F10807BD4680BD80B582B043
S1135A5000AF78607B681B7B03F078030F2B03D9BE
S1135A607B681846FFF726FF07F10807BD4680BD8F
S1135A7080B582B000AF78607B685B691B68002BDF
S1135A8005D07B685B691B681846FFF75BFF07F16D
S1135A900807BD4680BD00BF80B586B002AFF86080
S1135AA0B9607A604EF27823C1F6FF731B6818461A
S1135AB0FDF77CFE4EF27823C1F6FF731B68FA688B
S1135AC05A617B68002B13DDFB68BA681A60796839
S1135AD045F65D33C0F200034EF27822C1F6FF7240
S1135AE0D2F800C0B8681A466346FFF7F7FE1BE019
S1135AF07B68B3F1FF3F13D04CF20023C0F20003E4
S1135B004CF21422C0F2000200924FF000004FF059
S1135B1002011A464FF04203FFF74CFEFFF744FE22
S1135B20FB684FF000021A6007F11007BD4680BD04
S1135B3080B582B000AF78607868FFF799FF7B6822
S1135B405B694FF000021A607868FFF747FF03466D
S1135B50184607F10807BD4680BD00BF80B582B076
S1135B6000AF78607868FFF771FF7B685B696FF05E
S1135B7031021A607868FFF731FF0346002B06D024
S1135B804EF2E813C1F6FF734FF001021A60FFF7FB
S1135B9067FEFFF743FE07F10807BD4680BD00BF5F
S1135BA080B582B000AF78607B685B694FF000021B
S1135BB01A607868FFF712FF0346002B06D04EF2F6
S1135BC0E813C1F6FF734FF001021A60FFF748FEB5
S1135BD0FFF724FE07F10807BD4680BD80B582B0FB
S1135BE000AF78607868FFF731FF7868FFF740FF0F
S1135BF07B685B696FF030021A607868FFF7EEFE2D
S1135C000346184607F10807BD4680BD80B582B03B
S1135C1000AF78607B689B681B6803F00103DBB20C
S1135C20002B0AD07A684EF27823C1F6FF731B6802
S1135C3010461946FFF792FE09E07A684EF278237F
S1135C40C1F6FF731B6810461946FFF71BFE07F1E8
S1135C500807BD4680BD00BF80B582B000AF786044
S1135C6039603B681846FFF79DFE7868FFF7CEFF62
S1135C703B687A685A6007F10807BD4680BD00BFDB
S1135C8080B483B000AFEFF313837B6071B67B689D
S1135C90012B02D14FF0010301E04FF0000318463D
S1135CA007F10C07BD4680BC704700BF80B500AF4C
S1135CB001F03EFCFFF762F9FAF79AFAFAF7A8FA4C
S1135CC04DF62023C1F6FF734FF001021A60FBF773
S1135CD02DFE00BF80B582B000AFFFF7D1FF0346B1
S1135CE07B604DF62023C1F6FF734FF000021A606B
